:100000000C942E000C944B000C944B000C944B0061
:100010000C944B000C944B000C944B000C944B0034
:100020000C944B000C944B000C944B000C944B0024
:100030000C944B000C94C7000C944B000C944B0098
:100040000C944B000C944B000C944B000C944B0004
:100050000C944B000C944B000C944B0011241FBECD
:10006000CFEFD4E0DEBFCDBF12E0A0E0B1E0EEE61E
:10007000F8E002C005900D92A232B107D9F722E054
:10008000A2E2B2E001C01D92A832B207E1F70E94DD
:10009000DB000C9435040C940000019721F48FEFE1
:1000A00080BB81B9089510BA11B80895019719F469
:1000B0008FEF8AB908951AB80895FC01FF27E25F0F
:1000C000FE4F208121BB892F9927FC01E25FFE4F63
:1000D000808182B908959FEF9AB9E82FF0E0E25F3E
:1000E000FE4F80818BB908950E946B0040980000FC
:1000F0000000409A08950E946B00419800000000A3
:10010000419A0895CF93DF93EC0199270E947B00D9
:100110008D2F90E0DF91CF910C9474009093C500E7
:100120008093C40088E18093C1008EE08093C20078
:1001300008959091C00095FFFCCF8093C60008956C
:10014000CF93C82F8A3019F48DE00E9499008C2F2C
:100150000E94990080E090E0CF9108958091C000C6
:1001600087FFFCCF8091C60008958091C000881F52
:100170008827881F0895CF93DF93EC018991882306
:1001800019F00E949900FACFDF91CF9108951F9244
:100190000F920FB60F9211248F93EF93FF93E6EC1B
:1001A000F0E080818083FF91EF918F910F900FBEDF
:1001B0000F901F90189580E091E090932502809316
:1001C000240280E090E00E948E008EE092E00E9487
:1001D0003D0110BA8FEF84B987B983BB479AA198C4
:1001E000A19AC0E0D0E0CE010E9482002FEF80E70C
:1001F00092E0215080409040E1F700C0000021963D
:10020000CF3F2FEFD20779F782E990E04498449AE4
:100210000197E1F78FB11F928F93CBE1D2E0DF938B
:10022000CF930E9427014798000000008FB1479AA2
:100230001F928F93DF93CF930E9427018DB79EB7B4
:1002400008960FB6F8949EBF0FBE8DBFFFCFA0E0FB
:10025000B0E0EDE2F1E00C940E04AE014B5F5F4FB5
:10026000FA0161917191AF01809124029091250270
:100270000E946D01E2E00C942A040F931F93CF9328
:10028000DF93E0912402F0912502238121FF1BC01E
:100290008C01D0E0C0E0F80181918F0160912402CF
:1002A00070912502DB011896ED91FC911997882336
:1002B00031F00995892B79F3DFEFCFEFECCF8AE0AE
:1002C0000995892B19F08FEF9FEF02C08D2F9C2F7E
:1002D000DF91CF911F910F910895ABE0B0E0E3E77C
:1002E000F1E00C94FE036C017B018A01FC01178292
:1002F0001682838181FFCCC1CE0101963C01F601BB
:100300009381F70193FD859193FF81917F0188236C
:1003100009F4BAC1853239F493FD859193FF819137
:100320007F01853229F4B60190E00E946403E7CF93
:10033000912C212C312CFFE1F315D8F08B3279F080
:1003400038F4803279F08332A1F4232D20611DC06E
:100350008D3261F0803369F4232D216016C0832D26
:100360008260382EE32DE4603E2E2AC0F32DF86023
:100370001DC037FC2DC020ED280F2A3040F08E32F2
:10038000B9F436FC81C1232D2064322E19C036FE0B
:1003900006C08AE0989E200D1124922E11C0EAE03A
:1003A0002E9E200D1124222EF32DF0623F2E08C028
:1003B0008C3621F4832D8068382E02C0883641F4B3
:1003C000F70193FD859193FF81917F018111B3CF57
:1003D000982F9F7D9554933028F40C5F1F4F9FE317
:1003E00099830DC0833631F0833771F0833509F07E
:1003F00059C021C0F801808189830E5F1F4F882476
:100400008394912C530113C02801F2E04F0E511C2C
:10041000F801A080B18036FE03C0692D70E002C0F3
:100420006FEF7FEFC5010E9459034C018201F32D4C
:10043000FF773F2E16C0280122E0420E511CF80122
:10044000A080B18036FE03C0692D70E002C06FEF5E
:100450007FEFC5010E944E034C01F32DF0683F2E43
:10046000820133FC1BC0822D90E088169906B0F4FF
:10047000B60180E290E00E9464032A94F4CFF50173
:1004800037FC859137FE81915F01B60190E00E94B3
:10049000640321102A9421E0821A910881149104A6
:1004A00071F7E8C0843611F0893641F5F80137FE5E
:1004B00007C060817181828193810C5F1F4F08C0EA
:1004C00060817181072E000C880B990B0E5F1F4F06
:1004D000F32DFF763F2E97FF09C09095809570957C
:1004E00061957F4F8F4F9F4FF0683F2E2AE030E09D
:1004F000A3010E94A003882E861845C0853731F4D9
:10050000232D2F7EB22E2AE030E025C0932D997F37
:10051000B92E8F36C1F018F4883579F0B5C0803720
:1005200019F0883721F0B0C0E92FE061BE2EB4FE8B
:100530000DC0FB2DF460BF2E09C034FE0AC0292F68
:100540002660B22E06C028E030E005C020E130E091
:1005500002C020E132E0F801B7FE07C0608171817E
:10056000828193810C5F1F4F06C06081718180E0A2
:1005700090E00E5F1F4FA3010E94A003882E8618F3
:10058000FB2DFF773F2E36FE0DC0232D2E7FA22E92
:10059000891458F434FE0BC032FC09C0832D8E7EC2
:1005A000A82E05C0B82CA32C03C0B82C01C0B92CB0
:1005B000A4FE0FC0FE01E80DF11D8081803321F4FF
:1005C0009A2D997EA92E09C0A2FE06C0B394B394B9
:1005D00004C08A2D867809F0B394A3FC11C0A0FE54
:1005E00006C0B21488F4280C922C9B180EC0B214CA
:1005F00060F4B60180E290E00E946403B394F7CF08
:10060000B21418F42B1802C0982C212CA4FE10C090
:10061000B60180E390E00E946403A2FE17C0A1FC33
:1006200003C088E790E002C088E590E0B6010CC006
:100630008A2D867859F0A1FE02C08BE201C080E2CB
:10064000A7FC8DE2B60190E00E946403891438F49F
:10065000B60180E390E00E9464039A94F7CF8A94F5
:10066000F301E80DF11D8081B60190E00E94640362
:100670008110F5CF222009F442CEB60180E290E04D
:100680000E9464032A94F6CFF6018681978102C006
:100690008FEF9FEF2B96E2E10C941A04FC0105907A
:1006A000615070400110D8F7809590958E0F9F1F74
:1006B0000895FC016150704001900110D8F78095B9
:1006C00090958E0F9F1F08950F931F93CF93DF93E5
:1006D000FB01238121FD03C08FEF9FEF2CC022FF80
:1006E00016C046815781248135814217530744F44F
:1006F000A081B1819D012F5F3F4F318320838C9377
:10070000268137812F5F3F4F3783268314C08B01AB
:10071000EC01FB010084F185E02D0995892BE1F6C0
:10072000D80116968D919C911797019617969C93D8
:100730008E931697CE01DF91CF911F910F9108955F
:10074000FA01AA27283051F1203181F1E8946F9302
:100750006E7F6E5F7F4F8F4F9F4FAF4FB1E03ED0A8
:10076000B4E03CD0670F781F891F9A1FA11D680F46
:10077000791F8A1F911DA11D6A0F711D811D911D79
:10078000A11D20D009F468943F912AE0269F1124EE
:100790003019305D3193DEF6CF010895462F477052
:1007A000405D4193B3E00FD0C9F7F6CF462F4F70AD
:1007B000405D4A3318F0495D31FD4052419302D00B
:1007C000A9F7EACFB4E0A6959795879577956795B1
:1007D000BA95C9F700976105710508959B01AC01B1
:1007E0000A2E06945795479537952795BA95C9F7D8
:1007F000620F731F841F951FA01D08952F923F92B3
:100800004F925F926F927F928F929F92AF92BF9220
:10081000CF92DF92EF92FF920F931F93CF93DF93CC
:10082000CDB7DEB7CA1BDB0B0FB6F894DEBF0FBE29
:10083000CDBF09942A88398848885F846E847D8476
:100840008C849B84AA84B984C884DF80EE80FD8078
:100850000C811B81AA81B981CE0FD11D0FB6F894EE
:0E086000DEBF0FBECDBFED010895F894FFCFAF
:10086E000000000200000000A000000000000002D6
:10087E000103080A090B040605070C0E0D0F2022B2
:10088E002123282A292B242625272C2E2D2F101202
:10089E001113181A191B141615171C1E1D1F303292
:1008AE003133383A393B343635373C3E3D3F808222
:1008BE008183888A898B848685878C8E8D8FA0A272
:1008CE00A1A3A8AAA9ABA4A6A5A7ACAEADAF9092C2
:1008DE009193989A999B949695979C9E9D9FB0B252
:1008EE00B1B3B8BAB9BBB4B6B5B7BCBEBDBF404262
:1008FE004143484A494B444645474C4E4D4F606232
:10090E006163686A696B646665676C6E6D6F505281
:10091E005153585A595B545655575C5E5D5F707211
:10092E007173787A797B747675777C7E7D7FC0C2A1
:10093E00C1C3C8CAC9CBC4C6C5C7CCCECDCFE0E2F1
:10094E00E1E3E8EAE9EBE4E6E5E7ECEEEDEFD0D241
:10095E00D1D3D8DAD9DBD4D6D5D7DCDEDDDFF0F2D1
:10096E00F1F3F8FAF9FBF4F6F5F7FCFEFDFF486536
:10097E006C6C6F20776F726C6421002D2D3E256498
:02098E000A005D
:00000001FF
