:100000000C942E000C944B000C944B000C944B0061
:100010000C944B000C944B000C944B000C944B0034
:100020000C944B000C944B000C944B000C944B0024
:100030000C944B000C94E7000C944B000C944B0078
:100040000C944B000C944B000C944B000C944B0004
:100050000C944B000C944B000C944B0011241FBECD
:10006000CFEFD4E0DEBFCDBF12E0A0E0B1E0E4EC22
:10007000F2E002C005900D92AC31B107D9F722E051
:10008000ACE1B2E001C01D92A232B207E1F70E94DA
:10009000FB000C9460010C940000A198A19A0895B3
:1000A0008FEF84B987B983BB479A439A459A0C94DA
:1000B0004D00449800000000449A0895019721F4EF
:1000C0008FEF80BB81B9089510BA11B808950197D8
:1000D00019F48FEF8AB908951AB80895FC01FF2723
:1000E000E25FFE4F208121BB892F9927FC01E25F4F
:1000F000FE4F808182B908959FEF9AB9E82FF0E012
:10010000E25FFE4F80818BB908950E947C00409889
:1001100000000000409A08954598000000000895EE
:10012000459A0000000008950E947C00419800005C
:100130000000419A0895CF93DF93EC0199270E9424
:1001400094008D2F90E0DF91CF910C9485000E9458
:100150007C00429800000000429A08959093C500E8
:100160008093C40088E18093C1008EE08093C20038
:1001700008959091C00095FFFCCF8093C60008952C
:10018000CF93C82F8A3019F48DE00E94B9008C2FCC
:100190000E94B90080E090E0CF9108958091C00066
:1001A00087FFFCCF8091C60008958091C000881F12
:1001B0008827881F0895CF93DF93EC0189918823C6
:1001C00019F00E94B900FACFDF91CF9108951F92E4
:1001D0000F920FB60F9211248F93EF93FF93E6ECDB
:1001E000F0E080818083FF91EF918F910F900FBE9F
:1001F0000F901F901895CF93DF9380E091E090933C
:100200001F0280931E0280E090E00E94AE008EE00C
:1002100092E00E9430010E94500080E090E00E9435
:10022000A700C0E0D0E0CE010E949B008D2F99274F
:10023000809590950E94A7000E9459002196C13098
:1002400085E5D80781F70E948C00409800000000E7
:10025000409A0E94900080E090E0DF91CF91089555
:100260000F931F93CF93DF93E0911E02F0911F0233
:10027000238121FF1BC08C01D0E0C0E0F8018191F7
:100280008F0160911E0270911F02DB011896ED91A3
:10029000FC911997882331F00995892B79F3DFEFC9
:1002A000CFEFECCF8AE00995892B19F08FEF9FEF04
:1002B00002C08D2F9C2FDF91CF911F910F91089538
:0402C000F894FFCFE0
:1002C4000000000200000000C00000000000000266
:1002D4000103080A090B040605070C0E0D0F202262
:1002E4002123282A292B242625272C2E2D2F1012B2
:1002F4001113181A191B141615171C1E1D1F303242
:100304003133383A393B343635373C3E3D3F8082D1
:100314008183888A898B848685878C8E8D8FA0A221
:10032400A1A3A8AAA9ABA4A6A5A7ACAEADAF909271
:100334009193989A999B949695979C9E9D9FB0B201
:10034400B1B3B8BAB9BBB4B6B5B7BCBEBDBF404211
:100354004143484A494B444645474C4E4D4F6062E1
:100364006163686A696B646665676C6E6D6F505231
:100374005153585A595B545655575C5E5D5F7072C1
:100384007173787A797B747675777C7E7D7FC0C251
:10039400C1C3C8CAC9CBC4C6C5C7CCCECDCFE0E2A1
:1003A400E1E3E8EAE9EBE4E6E5E7ECEEEDEFD0D2F1
:1003B400D1D3D8DAD9DBD4D6D5D7DCDEDDDFF0F281
:1003C400F1F3F8FAF9FBF4F6F5F7FCFEFDFF4865E6
:0C03D4006C6C6F20776F726C642100006D
:00000001FF
